{
  "contractName": "Ballot",
  "abi": [
    {
      "constant": true,
      "inputs": [
        {
          "name": "",
          "type": "uint256"
        }
      ],
      "name": "members",
      "outputs": [
        {
          "name": "",
          "type": "address"
        }
      ],
      "payable": false,
      "stateMutability": "view",
      "type": "function"
    },
    {
      "inputs": [
        {
          "name": "_members",
          "type": "address[]"
        }
      ],
      "payable": false,
      "stateMutability": "nonpayable",
      "type": "constructor"
    },
    {
      "constant": false,
      "inputs": [
        {
          "name": "id",
          "type": "uint256"
        }
      ],
      "name": "vote",
      "outputs": [],
      "payable": false,
      "stateMutability": "nonpayable",
      "type": "function"
    },
    {
      "constant": true,
      "inputs": [
        {
          "name": "id",
          "type": "uint256"
        }
      ],
      "name": "noVotes",
      "outputs": [
        {
          "name": "",
          "type": "uint256"
        }
      ],
      "payable": false,
      "stateMutability": "view",
      "type": "function"
    }
  ],
  "bytecode": "0x608060405234801561001057600080fd5b506040516104ef3803806104ef8339810180604052602081101561003357600080fd5b81019080805164010000000081111561004b57600080fd5b8281019050602081018481111561006157600080fd5b815185602082028301116401000000008211171561007e57600080fd5b5050929190505050806001908051906020019061009c9291906100a3565b5050610170565b82805482825590600052602060002090810192821561011c579160200282015b8281111561011b5782518260006101000a81548173ffffffffffffffffffffffffffffffffffffffff021916908373ffffffffffffffffffffffffffffffffffffffff160217905550916020019190600101906100c3565b5b509050610129919061012d565b5090565b61016d91905b8082111561016957600081816101000a81549073ffffffffffffffffffffffffffffffffffffffff021916905550600101610133565b5090565b90565b6103708061017f6000396000f3fe608060405234801561001057600080fd5b50600436106100415760003560e01c80630121b93f146100465780635daf08ca14610074578063e28d1349146100e2575b600080fd5b6100726004803603602081101561005c57600080fd5b8101908080359060200190929190505050610124565b005b6100a06004803603602081101561008a57600080fd5b8101908080359060200190929190505050610247565b604051808273ffffffffffffffffffffffffffffffffffffffff1673ffffffffffffffffffffffffffffffffffffffff16815260200191505060405180910390f35b61010e600480360360208110156100f857600080fd5b8101908080359060200190929190505050610283565b6040518082815260200191505060405180910390f35b61012d336102a2565b61013657600080fd5b6000806000838152602001908152602001600020905060008090505b81805490508110156101dc573373ffffffffffffffffffffffffffffffffffffffff1682828154811061018157fe5b9060005260206000200160009054906101000a900473ffffffffffffffffffffffffffffffffffffffff1673ffffffffffffffffffffffffffffffffffffffff1614156101cf575050610244565b8080600101915050610152565b50803390806001815401808255809150509060018203906000526020600020016000909192909190916101000a81548173ffffffffffffffffffffffffffffffffffffffff021916908373ffffffffffffffffffffffffffffffffffffffff16021790555050505b50565b6001818154811061025457fe5b906000526020600020016000915054906101000a900473ffffffffffffffffffffffffffffffffffffffff1681565b6000806000838152602001908152602001600020805490509050919050565b600080600090505b60018054905081101561033957600181815481106102c457fe5b9060005260206000200160009054906101000a900473ffffffffffffffffffffffffffffffffffffffff1673ffffffffffffffffffffffffffffffffffffffff168373ffffffffffffffffffffffffffffffffffffffff16141561032c57600191505061033f565b80806001019150506102aa565b50600090505b91905056fea165627a7a72305820767b123b1c9219daa2a86d57938131d59c95e46027e932e51e1a9e2da67bcd5b0029",
  "source": "pragma solidity >=0.4.21 <0.6.0;\r\n\r\ncontract Ballot {\r\n\r\n    mapping (uint => address[]) votes;\r\n    address[] public members;\r\n\r\n    constructor(address[] memory _members) public {\r\n        members = _members;\r\n    }\r\n\r\n    function isMember(address user) private view returns (bool) {\r\n        for (uint k = 0; k < members.length; k++)\r\n            if (user == members[k])\r\n                return true;\r\n                \r\n        return false;\r\n    }\r\n\r\n    modifier onlyMember() {\r\n        require(isMember(msg.sender));\r\n        _;\r\n    }\r\n\r\n    function vote(uint id) public onlyMember() {        \r\n\r\n        address[] storage vts = votes[id];\r\n\r\n        for(uint k=0; k < vts.length; k++){\r\n            if (vts[k] == msg.sender)\r\n                return;\r\n        }\r\n\r\n        vts.push(msg.sender);\r\n    }\r\n\r\n    function noVotes(uint id) public view returns (uint) {\r\n        return votes[id].length;\r\n    }\r\n\r\n   \r\n\r\n}",
  "sourcePath": "C:/Proyectos/KeepCodingEthereum/SoliditySamples/truffle/kc1jjtg/contracts/Ballot.sol",
  "compiler": {
    "name": "solc",
    "version": "0.5.8+commit.23d335f2.Emscripten.clang"
  },
  "schemaVersion": "3.0.16",
  "updatedAt": "2019-10-11T22:02:48.026Z",
  "devdoc": {
    "methods": {}
  },
  "userdoc": {
    "methods": {}
  }
}