{
  "contractName": "Counter",
  "abi": [
    {
      "constant": true,
      "inputs": [],
      "name": "counter",
      "outputs": [
        {
          "name": "",
          "type": "uint256"
        }
      ],
      "payable": false,
      "stateMutability": "view",
      "type": "function"
    },
    {
      "inputs": [],
      "payable": false,
      "stateMutability": "nonpayable",
      "type": "constructor"
    },
    {
      "constant": false,
      "inputs": [],
      "name": "increment",
      "outputs": [],
      "payable": false,
      "stateMutability": "nonpayable",
      "type": "function"
    },
    {
      "constant": false,
      "inputs": [
        {
          "name": "value",
          "type": "uint256"
        }
      ],
      "name": "add",
      "outputs": [],
      "payable": false,
      "stateMutability": "nonpayable",
      "type": "function"
    }
  ],
  "bytecode": "0x608060405234801561001057600080fd5b50600160008190555060e7806100276000396000f3fe6080604052348015600f57600080fd5b5060043610603c5760003560e01c80631003e2d214604157806361bc221a14606c578063d09de08a146088575b600080fd5b606a60048036036020811015605557600080fd5b81019080803590602001909291905050506090565b005b607260a2565b6040518082815260200191505060405180910390f35b608e60a8565b005b80600080828254019250508190555050565b60005481565b600080815480929190600101919050555056fea165627a7a7230582026da518e8e0e5ce761680ec78f1c071e236deb6119b8fc215af7c838a8aec5f00029",
  "source": "pragma solidity >=0.4.21 <0.6.0;\r\n\r\ncontract Counter {\r\n\r\n    uint public counter;\r\n\r\n    constructor() public {\r\n\r\n        counter = 1;\r\n    }\r\n\r\n    function increment() public {\r\n\r\n        counter++;\r\n\r\n    }\r\n\r\n    function add(uint value) public {\r\n\r\n        counter += value;\r\n\r\n    }\r\n\r\n}",
  "sourcePath": "C:/Proyectos/KeepCodingEthereum/SoliditySamples/truffle/kc1jjtg/contracts/Counter.sol",
  "compiler": {
    "name": "solc",
    "version": "0.5.8+commit.23d335f2.Emscripten.clang"
  },
  "schemaVersion": "3.0.16",
  "updatedAt": "2019-10-13T16:57:04.366Z",
  "devdoc": {
    "methods": {}
  },
  "userdoc": {
    "methods": {}
  }
}